{"abi":[{"type":"constructor","inputs":[{"name":"_keystoreCache","type":"address","internalType":"address"},{"name":"_siloingBytes","type":"bytes2","internalType":"bytes2"}],"stateMutability":"nonpayable"},{"type":"function","name":"KEYSTORE_CACHE","inputs":[],"outputs":[{"name":"","type":"address","internalType":"contract IKeystoreCache"}],"stateMutability":"view"},{"type":"function","name":"accountData","inputs":[{"name":"account","type":"address","internalType":"address"}],"outputs":[{"name":"initialized","type":"bool","internalType":"bool"},{"name":"invalidationTime","type":"uint48","internalType":"uint48"},{"name":"keystoreAddress","type":"bytes32","internalType":"bytes32"}],"stateMutability":"view"},{"type":"function","name":"isInitialized","inputs":[{"name":"smartAccount","type":"address","internalType":"address"}],"outputs":[{"name":"","type":"bool","internalType":"bool"}],"stateMutability":"view"},{"type":"function","name":"isModuleType","inputs":[{"name":"moduleTypeId","type":"uint256","internalType":"uint256"}],"outputs":[{"name":"","type":"bool","internalType":"bool"}],"stateMutability":"pure"},{"type":"function","name":"isValidSignatureWithSender","inputs":[{"name":"sender","type":"address","internalType":"address"},{"name":"hash","type":"bytes32","internalType":"bytes32"},{"name":"data","type":"bytes","internalType":"bytes"}],"outputs":[{"name":"","type":"bytes4","internalType":"bytes4"}],"stateMutability":"view"},{"type":"function","name":"name","inputs":[],"outputs":[{"name":"","type":"string","internalType":"string"}],"stateMutability":"pure"},{"type":"function","name":"onInstall","inputs":[{"name":"data","type":"bytes","internalType":"bytes"}],"outputs":[],"stateMutability":"nonpayable"},{"type":"function","name":"onUninstall","inputs":[{"name":"","type":"bytes","internalType":"bytes"}],"outputs":[],"stateMutability":"nonpayable"},{"type":"function","name":"registerStatelessValidator","inputs":[{"name":"statelessValidator","type":"address","internalType":"address"},{"name":"bytecodeHash","type":"bytes32","internalType":"bytes32"}],"outputs":[],"stateMutability":"nonpayable"},{"type":"function","name":"statelessValidators","inputs":[{"name":"registeredCodeHash","type":"bytes32","internalType":"bytes32"}],"outputs":[{"name":"statelessValidator","type":"address","internalType":"contract IStatelessValidator"}],"stateMutability":"view"},{"type":"function","name":"updateInvalidationTime","inputs":[{"name":"invalidationTime","type":"uint48","internalType":"uint48"}],"outputs":[],"stateMutability":"nonpayable"},{"type":"function","name":"validateUserOp","inputs":[{"name":"userOp","type":"tuple","internalType":"struct PackedUserOperation","components":[{"name":"sender","type":"address","internalType":"address"},{"name":"nonce","type":"uint256","internalType":"uint256"},{"name":"initCode","type":"bytes","internalType":"bytes"},{"name":"callData","type":"bytes","internalType":"bytes"},{"name":"accountGasLimits","type":"bytes32","internalType":"bytes32"},{"name":"preVerificationGas","type":"uint256","internalType":"uint256"},{"name":"gasFees","type":"bytes32","internalType":"bytes32"},{"name":"paymasterAndData","type":"bytes","internalType":"bytes"},{"name":"signature","type":"bytes","internalType":"bytes"}]},{"name":"userOpHash","type":"bytes32","internalType":"bytes32"}],"outputs":[{"name":"","type":"uint256","internalType":"ERC7579ValidatorBase.ValidationData"}],"stateMutability":"view"},{"type":"function","name":"version","inputs":[],"outputs":[{"name":"","type":"string","internalType":"string"}],"stateMutability":"pure"},{"type":"event","name":"StatelessValidatorRegistered","inputs":[{"name":"codeHash","type":"bytes32","indexed":false,"internalType":"bytes32"},{"name":"statelessValidator","type":"address","indexed":false,"internalType":"address"}],"anonymous":false},{"type":"error","name":"AlreadyInitialized","inputs":[{"name":"smartAccount","type":"address","internalType":"address"}]},{"type":"error","name":"AlreadyRegistered","inputs":[{"name":"codeHash","type":"bytes32","internalType":"bytes32"}]},{"type":"error","name":"CodeHashMismatch","inputs":[{"name":"codeHash","type":"bytes32","internalType":"bytes32"},{"name":"statelessValidator","type":"address","internalType":"address"}]},{"type":"error","name":"InvalidKeystoreAddress","inputs":[]},{"type":"error","name":"ModuleAlreadyInitialized","inputs":[{"name":"smartAccount","type":"address","internalType":"address"}]},{"type":"error","name":"NotAnExclusionProof","inputs":[]},{"type":"error","name":"NotInitialized","inputs":[{"name":"smartAccount","type":"address","internalType":"address"}]},{"type":"error","name":"StateRootNotFound","inputs":[{"name":"stateRoot","type":"bytes32","internalType":"bytes32"}]},{"type":"error","name":"UnregisteredCodeHash","inputs":[{"name":"codeHash","type":"bytes32","internalType":"bytes32"}]},{"type":"error","name":"UnsupportedOperation","inputs":[]}],"bytecode":{"object":"0x60c060405234801561000f575f5ffd5b506040516121ca3803806121ca8339818101604052810190610031919061016d565b81818173ffffffffffffffffffffffffffffffffffffffff1660808173ffffffffffffffffffffffffffffffffffffffff1681525050807dffffffffffffffffffffffffffffffffffffffffffffffffffffffffffff191660a0817dffffffffffffffffffffffffffffffffffffffffffffffffffffffffffff191681525050505050506101ab565b5f5ffd5b5f73ffffffffffffffffffffffffffffffffffffffff82169050919050565b5f6100e7826100be565b9050919050565b6100f7816100dd565b8114610101575f5ffd5b50565b5f81519050610112816100ee565b92915050565b5f7fffff00000000000000000000000000000000000000000000000000000000000082169050919050565b61014c81610118565b8114610156575f5ffd5b50565b5f8151905061016781610143565b92915050565b5f5f60408385031215610183576101826100ba565b5b5f61019085828601610104565b92505060206101a185828601610159565b9150509250929050565b60805160a051611ff06101da5f395f8181610eb6015261106101525f818161043301526111090152611ff05ff3fe608060405234801561000f575f5ffd5b50600436106100cd575f3560e01c8063970032031161008a578063d60b347f11610064578063d60b347f146101fb578063deb906e71461022b578063ecd059611461025d578063f551e2ee1461028d576100cd565b806397003203146101935780639d508afb146101c3578063cb1d587e146101df576100cd565b806306fdde03146100d157806354fd4d50146100ef5780636d61fe701461010d5780637dcdb34d1461012957806387d57391146101475780638a91b0e314610177575b5f5ffd5b6100d96102bd565b6040516100e691906113d4565b60405180910390f35b6100f76102fa565b60405161010491906113d4565b60405180910390f35b6101276004803603810190610122919061145d565b610337565b005b610131610431565b60405161013e9190611522565b60405180910390f35b610161600480360381019061015c919061156e565b610455565b60405161016e91906115b9565b60405180910390f35b610191600480360381019061018c919061145d565b610484565b005b6101ad60048036038101906101a891906115f5565b610588565b6040516101ba9190611688565b60405180910390f35b6101dd60048036038101906101d891906116dc565b61084f565b005b6101f960048036038101906101f49190611755565b6109f2565b005b61021560048036038101906102109190611780565b610aad565b60405161022291906117c5565b60405180910390f35b61024560048036038101906102409190611780565b610b06565b604051610254939291906117fc565b60405180910390f35b6102776004803603810190610272919061185b565b610b49565b60405161028491906117c5565b60405180910390f35b6102a760048036038101906102a29190611886565b610b55565b6040516102b49190611931565b60405180910390f35b60606040518060400160405280601181526020017f4b657973746f726556616c696461746f72000000000000000000000000000000815250905090565b60606040518060400160405280600581526020017f302e302e31000000000000000000000000000000000000000000000000000000815250905090565b5f60015f3373ffffffffffffffffffffffffffffffffffffffff1673ffffffffffffffffffffffffffffffffffffffff1681526020019081526020015f209050805f015f9054906101000a900460ff161533906103ca576040517f93360fbf0000000000000000000000000000000000000000000000000000000081526004016103c19190611959565b60405180910390fd5b505f5f84848101906103dc9190611972565b915091506001835f015f6101000a81548160ff02191690831515021790555081835f0160016101000a81548165ffffffffffff021916908365ffffffffffff1602179055508083600101819055505050505050565b7f000000000000000000000000000000000000000000000000000000000000000081565b5f602052805f5260405f205f915054906101000a900473ffffffffffffffffffffffffffffffffffffffff1681565b60015f3373ffffffffffffffffffffffffffffffffffffffff1673ffffffffffffffffffffffffffffffffffffffff1681526020019081526020015f205f015f9054906101000a900460ff163390610512576040517ff91bd6f10000000000000000000000000000000000000000000000000000000081526004016105099190611959565b60405180910390fd5b5060015f3373ffffffffffffffffffffffffffffffffffffffff1673ffffffffffffffffffffffffffffffffffffffff1681526020019081526020015f205f5f82015f6101000a81549060ff02191690555f820160016101000a81549065ffffffffffff0219169055600182015f905550505050565b5f366105a38480610100019061059e91906119bc565b610e01565b90505f81805f01906105b59190611a1e565b8060a001906105c491906119bc565b6040516105d2929190611a82565b604051809103902090505f60015f875f0160208101906105f29190611780565b73ffffffffffffffffffffffffffffffffffffffff1673ffffffffffffffffffffffffffffffffffffffff1681526020019081526020015f2090505f61064b84805f01906106409190611a1e565b848460010154610e0b565b90505f61067485805f01906106609190611a1e565b8060a0019061066f91906119bc565b6111f9565b90505f5f5f8381526020019081526020015f205f9054906101000a900473ffffffffffffffffffffffffffffffffffffffff1690505f73ffffffffffffffffffffffffffffffffffffffff168173ffffffffffffffffffffffffffffffffffffffff161415829061071b576040517f619a61e80000000000000000000000000000000000000000000000000000000081526004016107129190611a9a565b60405180910390fd5b508073ffffffffffffffffffffffffffffffffffffffff1663940d38408988806020019061074991906119bc565b8a805f01906107589190611a1e565b8060a0019061076791906119bc565b602090809261077893929190611abb565b6040518663ffffffff1660e01b8152600401610798959493929190611b31565b602060405180830381865afa1580156107b3573d5f5f3e3d5ffd5b505050506040513d601f19601f820116820180604052508101906107d79190611ba2565b5061084160405180606001604052805f73ffffffffffffffffffffffffffffffffffffffff1681526020018565ffffffffffff168152602001865f0160019054906101000a900465ffffffffffff16866108319190611bfa565b65ffffffffffff16815250611204565b965050505050505092915050565b5f73ffffffffffffffffffffffffffffffffffffffff165f5f8381526020019081526020015f205f9054906101000a900473ffffffffffffffffffffffffffffffffffffffff1673ffffffffffffffffffffffffffffffffffffffff161481906108ef576040517f77caf6720000000000000000000000000000000000000000000000000000000081526004016108e69190611a9a565b60405180910390fd5b50808273ffffffffffffffffffffffffffffffffffffffff163f148273ffffffffffffffffffffffffffffffffffffffff163f839091610966576040517f52e0ea2400000000000000000000000000000000000000000000000000000000815260040161095d929190611c33565b60405180910390fd5b5050815f5f8381526020019081526020015f205f6101000a81548173ffffffffffffffffffffffffffffffffffffffff021916908373ffffffffffffffffffffffffffffffffffffffff1602179055507edd29ce8e4d81c400043fa2152e1df124de0317fb726718a02dbdb55452ea0081836040516109e6929190611c33565b60405180910390a15050565b5f60015f3373ffffffffffffffffffffffffffffffffffffffff1673ffffffffffffffffffffffffffffffffffffffff1681526020019081526020015f209050805f015f9054906101000a900460ff16610a8357336040517ff91bd6f1000000000000000000000000000000000000000000000000000000008152600401610a7a9190611959565b60405180910390fd5b81815f0160016101000a81548165ffffffffffff021916908365ffffffffffff1602179055505050565b5f5f60015f8473ffffffffffffffffffffffffffffffffffffffff1673ffffffffffffffffffffffffffffffffffffffff1681526020019081526020015f209050805f015f9054906101000a900460ff16915050919050565b6001602052805f5260405f205f91509050805f015f9054906101000a900460ff1690805f0160019054906101000a900465ffffffffffff16908060010154905083565b5f600182149050919050565b5f36610b618484610e01565b90505f81805f0190610b739190611a1e565b8060a00190610b8291906119bc565b604051610b90929190611a82565b604051809103902090505f60015f8973ffffffffffffffffffffffffffffffffffffffff1673ffffffffffffffffffffffffffffffffffffffff1681526020019081526020015f2090505f610bf884805f0190610bed9190611a1e565b848460010154610e0b565b90505f610c2185805f0190610c0d9190611a1e565b8060a00190610c1c91906119bc565b6111f9565b90505f5f5f8381526020019081526020015f205f9054906101000a900473ffffffffffffffffffffffffffffffffffffffff1690505f73ffffffffffffffffffffffffffffffffffffffff168173ffffffffffffffffffffffffffffffffffffffff1603610c9e5763ffffffff60e01b9650505050505050610df9565b5f8173ffffffffffffffffffffffffffffffffffffffff1663940d38408c898060200190610ccc91906119bc565b8b805f0190610cdb9190611a1e565b8060a00190610cea91906119bc565b6020908092610cfb93929190611abb565b6040518663ffffffff1660e01b8152600401610d1b959493929190611b31565b602060405180830381865afa158015610d36573d5f5f3e3d5ffd5b505050506040513d601f19601f82011682018060405250810190610d5a9190611ba2565b905080610d775763ffffffff60e01b975050505050505050610df9565b5f4290505f8565ffffffffffff161480610d9857508465ffffffffffff1681105b80610dca5750855f0160019054906101000a900465ffffffffffff1685610dbf9190611bfa565b65ffffffffffff1681115b15610de65763ffffffff60e01b98505050505050505050610df9565b631626ba7e60e01b985050505050505050505b949350505050565b3682905092915050565b5f5f845f016020810190610e1f9190611c6e565b1561102e575f5f5f5f610e40898060200190610e3b91906119bc565b61124a565b93509350935093505f82898b60800135604051602001610e6293929190611cb9565b604051602081830303815290604052805190602001209050808814610eb3576040517f686617c300000000000000000000000000000000000000000000000000000000815260040160405180910390fd5b5f7f000000000000000000000000000000000000000000000000000000000000000082604051602001610ee7929190611d40565b60405160208183030381529060405280519060200120905084811180610f5357505f60f81b7effffffffffffffffffffffffffffffffffffffffffffffffffffffffffffff1916867effffffffffffffffffffffffffffffffffffffffffffffffffffffffffffff1916145b158015610fc757508a60600135811080610fc557505f60f81b7effffffffffffffffffffffffffffffffffffffffffffffffffffffffffffff19168b6040016020810190610fa19190611dc0565b7effffffffffffffffffffffffffffffffffffffffffffffffffffffffffffff1916145b155b15610ffe576040517fcb3692bc00000000000000000000000000000000000000000000000000000000815260040160405180910390fd5b61102186868d60400160208101906110169190611dc0565b8e6060013587611275565b96505050505050506110d6565b5f848660800135604051602001611046929190611deb565b6040516020818303038152906040528051906020012090505f7f000000000000000000000000000000000000000000000000000000000000000085604051602001611092929190611d40565b6040516020818303038152906040528051906020012090506110d1600160f81b828960400160208101906110c69190611dc0565b8a6060013586611275565b925050505b5f611105828760e00135888060c001906110f09190611e16565b6112b69190939291909392919063ffffffff16565b90507f000000000000000000000000000000000000000000000000000000000000000073ffffffffffffffffffffffffffffffffffffffff1663b64ea3c7826040518263ffffffff1660e01b81526004016111609190611a9a565b602060405180830381865afa15801561117b573d5f5f3e3d5ffd5b505050506040513d601f19601f8201168201806040525081019061119f9190611e8c565b92505f8365ffffffffffff16141581906111ef576040517fc878ecc40000000000000000000000000000000000000000000000000000000081526004016111e69190611a9a565b60405180910390fd5b5050509392505050565b5f8235905092915050565b5f60d0826020015165ffffffffffff16901b60a0836040015165ffffffffffff16901b835f015173ffffffffffffffffffffffffffffffffffffffff1617179050919050565b5f5f5f5f6021860135915060418601359050602186601f37601f519350602051925092959194509250565b5f600160f81b868686868660405160200161129596959493929190611ed7565b60405160208183030381529060405280519060200120905095945050505050565b5f5f8585905090505f8490505f5f90505b828114611342575f6001808388901c16149050801561130a576113038989848181106112f6576112f5611f46565b5b9050602002013584611350565b9250611330565b61132d838a8a8581811061132157611320611f46565b5b90506020020135611350565b92505b508061133b90611f73565b90506112c7565b508092505050949350505050565b5f825f528160205260405f20905092915050565b5f81519050919050565b5f82825260208201905092915050565b8281835e5f83830152505050565b5f601f19601f8301169050919050565b5f6113a682611364565b6113b0818561136e565b93506113c081856020860161137e565b6113c98161138c565b840191505092915050565b5f6020820190508181035f8301526113ec818461139c565b905092915050565b5f5ffd5b5f5ffd5b5f5ffd5b5f5ffd5b5f5ffd5b5f5f83601f84011261141d5761141c6113fc565b5b8235905067ffffffffffffffff81111561143a57611439611400565b5b60208301915083600182028301111561145657611455611404565b5b9250929050565b5f5f60208385031215611473576114726113f4565b5b5f83013567ffffffffffffffff8111156114905761148f6113f8565b5b61149c85828601611408565b92509250509250929050565b5f73ffffffffffffffffffffffffffffffffffffffff82169050919050565b5f819050919050565b5f6114ea6114e56114e0846114a8565b6114c7565b6114a8565b9050919050565b5f6114fb826114d0565b9050919050565b5f61150c826114f1565b9050919050565b61151c81611502565b82525050565b5f6020820190506115355f830184611513565b92915050565b5f819050919050565b61154d8161153b565b8114611557575f5ffd5b50565b5f8135905061156881611544565b92915050565b5f60208284031215611583576115826113f4565b5b5f6115908482850161155a565b91505092915050565b5f6115a3826114f1565b9050919050565b6115b381611599565b82525050565b5f6020820190506115cc5f8301846115aa565b92915050565b5f5ffd5b5f61012082840312156115ec576115eb6115d2565b5b81905092915050565b5f5f6040838503121561160b5761160a6113f4565b5b5f83013567ffffffffffffffff811115611628576116276113f8565b5b611634858286016115d6565b92505060206116458582860161155a565b9150509250929050565b5f819050919050565b5f61167261166d6116688461164f565b6114c7565b61164f565b9050919050565b61168281611658565b82525050565b5f60208201905061169b5f830184611679565b92915050565b5f6116ab826114a8565b9050919050565b6116bb816116a1565b81146116c5575f5ffd5b50565b5f813590506116d6816116b2565b92915050565b5f5f604083850312156116f2576116f16113f4565b5b5f6116ff858286016116c8565b92505060206117108582860161155a565b9150509250929050565b5f65ffffffffffff82169050919050565b6117348161171a565b811461173e575f5ffd5b50565b5f8135905061174f8161172b565b92915050565b5f6020828403121561176a576117696113f4565b5b5f61177784828501611741565b91505092915050565b5f60208284031215611795576117946113f4565b5b5f6117a2848285016116c8565b91505092915050565b5f8115159050919050565b6117bf816117ab565b82525050565b5f6020820190506117d85f8301846117b6565b92915050565b6117e78161171a565b82525050565b6117f68161153b565b82525050565b5f60608201905061180f5f8301866117b6565b61181c60208301856117de565b61182960408301846117ed565b949350505050565b61183a8161164f565b8114611844575f5ffd5b50565b5f8135905061185581611831565b92915050565b5f602082840312156118705761186f6113f4565b5b5f61187d84828501611847565b91505092915050565b5f5f5f5f6060858703121561189e5761189d6113f4565b5b5f6118ab878288016116c8565b94505060206118bc8782880161155a565b935050604085013567ffffffffffffffff8111156118dd576118dc6113f8565b5b6118e987828801611408565b925092505092959194509250565b5f7fffffffff0000000000000000000000000000000000000000000000000000000082169050919050565b61192b816118f7565b82525050565b5f6020820190506119445f830184611922565b92915050565b611953816116a1565b82525050565b5f60208201905061196c5f83018461194a565b92915050565b5f5f60408385031215611988576119876113f4565b5b5f61199585828601611741565b92505060206119a68582860161155a565b9150509250929050565b5f5ffd5b5f5ffd5b5f5ffd5b5f5f833560016020038436030381126119d8576119d76119b0565b5b80840192508235915067ffffffffffffffff8211156119fa576119f96119b4565b5b602083019250600182023603831315611a1657611a156119b8565b5b509250929050565b5f8235600161010003833603038112611a3a57611a396119b0565b5b80830191505092915050565b5f81905092915050565b828183375f83830152505050565b5f611a698385611a46565b9350611a76838584611a50565b82840190509392505050565b5f611a8e828486611a5e565b91508190509392505050565b5f602082019050611aad5f8301846117ed565b92915050565b5f5ffd5b5f5ffd5b5f5f85851115611ace57611acd611ab3565b5b83861115611adf57611ade611ab7565b5b6001850283019150848603905094509492505050565b5f82825260208201905092915050565b5f611b108385611af5565b9350611b1d838584611a50565b611b268361138c565b840190509392505050565b5f606082019050611b445f8301886117ed565b8181036020830152611b57818688611b05565b90508181036040830152611b6c818486611b05565b90509695505050505050565b611b81816117ab565b8114611b8b575f5ffd5b50565b5f81519050611b9c81611b78565b92915050565b5f60208284031215611bb757611bb66113f4565b5b5f611bc484828501611b8e565b91505092915050565b7f4e487b71000000000000000000000000000000000000000000000000000000005f52601160045260245ffd5b5f611c048261171a565b9150611c0f8361171a565b9250828201905065ffffffffffff811115611c2d57611c2c611bcd565b5b92915050565b5f604082019050611c465f8301856117ed565b611c53602083018461194a565b9392505050565b5f81359050611c6881611b78565b92915050565b5f60208284031215611c8357611c826113f4565b5b5f611c9084828501611c5a565b91505092915050565b5f819050919050565b611cb3611cae8261153b565b611c99565b82525050565b5f611cc48286611ca2565b602082019150611cd48285611ca2565b602082019150611ce48284611ca2565b602082019150819050949350505050565b5f7fffff00000000000000000000000000000000000000000000000000000000000082169050919050565b5f819050919050565b611d3a611d3582611cf5565b611d20565b82525050565b5f611d4b8285611d29565b600282019150611d5b8284611ca2565b6020820191508190509392505050565b5f7fff0000000000000000000000000000000000000000000000000000000000000082169050919050565b611d9f81611d6b565b8114611da9575f5ffd5b50565b5f81359050611dba81611d96565b92915050565b5f60208284031215611dd557611dd46113f4565b5b5f611de284828501611dac565b91505092915050565b5f611df68285611ca2565b602082019150611e068284611ca2565b6020820191508190509392505050565b5f5f83356001602003843603038112611e3257611e316119b0565b5b80840192508235915067ffffffffffffffff821115611e5457611e536119b4565b5b602083019250602082023603831315611e7057611e6f6119b8565b5b509250929050565b5f81519050611e8681611831565b92915050565b5f60208284031215611ea157611ea06113f4565b5b5f611eae84828501611e78565b91505092915050565b5f819050919050565b611ed1611ecc82611d6b565b611eb7565b82525050565b5f611ee28289611ec0565b600182019150611ef28288611ec0565b600182019150611f028287611ca2565b602082019150611f128286611ec0565b600182019150611f228285611ca2565b602082019150611f328284611ca2565b602082019150819050979650505050505050565b7f4e487b71000000000000000000000000000000000000000000000000000000005f52603260045260245ffd5b5f611f7d8261164f565b91507fffffffffffffffffffffffffffffffffffffffffffffffffffffffffffffffff8203611faf57611fae611bcd565b5b60018201905091905056fea2646970667358221220adc71b01890e39b522d56f444bf633bb7e71b9e8ac208f561422786efbe5f43264736f6c634300081b0033","linkReferences":{}},"methodIdentifiers":{"KEYSTORE_CACHE()":"7dcdb34d","accountData(address)":"deb906e7","isInitialized(address)":"d60b347f","isModuleType(uint256)":"ecd05961","isValidSignatureWithSender(address,bytes32,bytes)":"f551e2ee","name()":"06fdde03","onInstall(bytes)":"6d61fe70","onUninstall(bytes)":"8a91b0e3","registerStatelessValidator(address,bytes32)":"9d508afb","statelessValidators(bytes32)":"87d57391","updateInvalidationTime(uint48)":"cb1d587e","validateUserOp((address,uint256,bytes,bytes,bytes32,uint256,bytes32,bytes,bytes),bytes32)":"97003203","version()":"54fd4d50"},"id":79}